:1000000019C02DC232C031C030C02FC02EC02DC08B
:100010002CC02BC02AC029C028C027C026C025C09C
:1000200024C023C022C021C020C01FC01EC01DC0CC
:100030001CC01BC011241FBECFEFD2E0DEBFCDBF5E
:1000400011E0A0E0B1E0E0E8F4E002C005900D921C
:10005000AC30B107D9F721E0ACE0B1E001C01D92AE
:10006000AC31B207E1F71AD109C2CACF1092B90078
:1000700080E28093B800089594EA9093BC00909138
:10008000BC0097FFFCCF9091B900987F983021F089
:10009000903111F081E008958093BB0084E8809353
:1000A000BC008091BC0087FFFCCF8091B900887FA5
:1000B000883111F0803471F780E0089524EA34E843
:1000C00044E92093BC009091BC0097FFFCCF909135
:1000D000B900987F983011F0903199F78093BB0068
:1000E0003093BC009091BC0097FFFCCF9091B90079
:1000F000987F903211F0983539F44093BC0090917C
:10010000BC0094FDFCCFDDCF0895B6CF84E9809389
:10011000BC008091BC0084FDFCCF08958093BB009F
:1001200084E88093BC008091BC0087FFFCCF909155
:10013000B900987F81E0983209F480E0089584EC5A
:100140008093BC008091BC0087FFFCCF8091BB00F6
:10015000089584E88093BC008091BC0087FFFCCFA9
:100160008091BB000895289A2FE78AE196E02150FC
:1001700080409040E1F700C0000028982FE78AE116
:1001800096E0215080409040E1F700C00000289A9E
:100190002FE78AE196E0215080409040E1F700C0CF
:1001A000000028982FE78AE196E021508040904097
:1001B000E1F700C00000289A2FE78AE196E021507D
:1001C00080409040E1F700C0000028980895CF9348
:1001D000DF93D82FD60FC62FCD1749F086EA6EDFF2
:1001E0008C2F9CDF80E09ADF91DFCF5FF5CFDF912E
:1001F000CF9108950F931F93CF93DF93082FC62FAE
:1002000086EA3ADF8C2F8ADF87EA7FDFD0E0C0E022
:1002100010E0015011098D2F90E08017910724F410
:100220008EDFC82BDF5FF7CF94DFC82B6FDF8C2FFB
:10023000DF91CF911F910F910895823069F0833043
:1002400059F1813051F5289A2FEF8DE399E421502F
:1002500080409040E1F71CC0289A2FE78AE196E0A1
:10026000215080409040E1F700C0000028982FE71F
:100270008AE196E0215080409040E1F700C0000004
:10028000289A2FE78AE196E0215080409040E1F7DC
:1002900000C000002898089566CF0895209A5298CB
:1002A0008EEF85B98FE388B98BEF8BB980916900A8
:1002B000826080936900E89AD9DE789480911B016E
:1002C0008823E1F3E89886EAD7DE8111C1C026DFF2
:1002D00087EA1BDF34DF80930C013BDF80930D0145
:1002E00015DF80910C01803219F010921A0107C0BD
:1002F00081E080931A0180910D018111F6CF8091E8
:100300001A01811102C082E0A1C086EAB5DE84E054
:1003100005DF83E003DF81E001DF81E0FFDEF6DE61
:1003200067E081E054DF86EAC9DE88E0F7DE84E634
:10033000F5DEECDE69E081E04ADF86EABFDE8AE0D6
:10034000EDDE84E3EBDE80E3E9DE87E3E7DE81E3F5
:10035000E5DE86E3E3DE86E3E1DED8DE68E184E124
:1003600036DF86EAABDE8CE2D9DE84E6D7DECEDE8F
:100370006DE283E52CDF86EAA1DE84E0CFDE87EA4A
:10038000C4DEDDDE80930E01DADE80930F01E1DE54
:1003900080931001BBDE86EA6FDE88E0BFDE87EA6D
:1003A000B4DED7DE80931101B1DE86EA65DE8AE035
:1003B000B5DE87EAAADEC3DE80931201C0DE809339
:1003C0001301BDDE80931401BADE80931501B7DE00
:1003D00080931601BEDE8093170198DE86EA4CDE1C
:1003E0008CE29CDE87EA91DEB4DE809318018EDE1B
:1003F00067E081E0FFDE182F69E081E0FBDED82FA7
:1004000068E184E1F7DEC82F6DE283E5F3DEE0E02A
:10041000F1E020E030E0D901A25FBE4F4C91919114
:10042000491719F01092190108C02F5F3F4F2B3068
:10043000310589F791E09093190190911901992361
:1004400041F0D12BCD2B8C2B21F481E0F6DE02C0C4
:100450005DDE89DEE89AE09A10921B012FCF1F9291
:100460000F920FB60F9211248F9381E080931B019E
:100470008F910F900FBE0F901F901895F894FFCF9B
:0C0480000301016434303731363664006B
:00000001FF
