:1000000019C079C232C031C030C02FC02EC02DC03F
:100010002CC02BC02AC029C028C027C026C025C09C
:1000200024C023C022C021C020C01FC01EC01DC0CC
:100030001CC01BC011241FBECFEFD2E0DEBFCDBF5E
:1000400011E0A0E0B1E0E8E1F5E002C005900D921A
:10005000A630B107D9F721E0A6E0B1E001C01D92BA
:10006000AC30B207E1F749D155C2CACF1092B900FE
:1000700080E28093B800089594EA9093BC00909138
:10008000BC0097FFFCCF9091B900987F983021F089
:10009000903111F081E008958093BB0084E8809353
:1000A000BC008091BC0087FFFCCF8091B900887FA5
:1000B000883111F0803471F780E0089524EA34E843
:1000C00044E92093BC009091BC0097FFFCCF909135
:1000D000B900987F983011F0903199F78093BB0068
:1000E0003093BC009091BC0097FFFCCF9091B90079
:1000F000987F903211F0983539F44093BC0090917C
:10010000BC0094FDFCCFDDCF0895B6CF84E9809389
:10011000BC008091BC0084FDFCCF08958093BB009F
:1001200084E88093BC008091BC0087FFFCCF909155
:10013000B900987F81E0983209F480E0089584EC5A
:100140008093BC008091BC0087FFFCCF8091BB00F6
:10015000089584E88093BC008091BC0087FFFCCFA9
:100160008091BB00089590E027E09817B1F025B981
:100170003FE74AE156E0315040405040E1F700C0CF
:10018000000015B83FE74AE156E03150404050408A
:10019000E1F700C000009F5FE8CF08950F931F9321
:1001A000CF9300E011E0C0E0F80181918F0164DF9E
:1001B000CF5F811102C08C2F03C0C530A9F780E04A
:1001C000CF911F910F9108951F93CF93DF93182F15
:1001D000D62FD40FC42FCD1749F0812F6FDF8C2F6E
:1001E0009DDF80E09BDF92DFCF5FF5CFDF91CF9186
:1001F0001F9108950F931F93CF93DF93C82F062F5E
:10020000D42F3ADF8D2F8ADF81E08C0F7EDFD0E0A4
:10021000C0E010E0015011098D2F90E08017910788
:1002200024F48DDFC82BDF5FF7CF93DFC82B6EDFA1
:100230008C2FDF91CF911F910F9108951F93CF9332
:10024000DF93182FD62FD40FC42FCD1749F0812F4D
:1002500035DF8C2F63DF8FEF61DF58DFCF5FF5CFA6
:10026000DF91CF911F9108950F931F93CF93DF9349
:10027000C82F062FD42F00DF8D2F50DF81E08C0F89
:1002800044DFD0E0CFEF10E0015011098D2F90E056
:100290008017910724F453DFC823DF5FF7CF59DFBE
:1002A000C82334DF8C2FDF91CF911F910F910895D8
:1002B000823081F028F4882349F0813049F0089594
:1002C000843061F048F0853059F00895862F4BCF87
:1002D00082E007C084E005C085E003C087E001C07C
:1002E00081E085B92FEF8DE399E421508040904063
:1002F000E1F700C0000015B8089587E084B952986E
:1003000088EF85B98FE388B98BEF8BB9809169004D
:10031000826080936900E89AA9DE789480910B014D
:100320008823E1F3E8983ADF182F882309F4DBC02B
:100330000FEF080F80E0F2DEE02FF0E0E050FF4F1B
:10034000C081D1E0DC0F8D2FE0DEF9DE8093060165
:1003500000DF80930701DADE80910601833E39F0E9
:1003600080910601833E19F010920A010BC081E0D2
:1003700080930A0180910701823121F08091070169
:10038000813091F780910A01811102C082E0ADC0F5
:10039000043008F086C046E061E08C2F15DF47E0AE
:1003A00061E08C2F4BDF8C2F89DE88E0B7DE84E69E
:1003B000B5DEACDE49E061E08C2F06DF40E166E0AF
:1003C0008C2F3CDF48E168E08C2F38DF48E261E0A9
:1003D0008C2F34DF49E261E08C2FF6DE4AE266E1E1
:1003E0008C2F2CDF43E46BE08C2F28DF4FE461E39C
:1003F0008C2F24DF8C2F62DE88E090DE8D2F85DE4F
:10040000A8DE8093080182DE46E061E08C2FF2DEF8
:10041000982E49E061E08C2FEDDEB82E49E261E0D4
:100420008C2FE8DEC82E47E061E08C2F1DDFA82E60
:1004300040E166E08C2F18DFD82E48E168E08C2F71
:1004400013DFE82E48E261E08C2F0EDFF82E4AE23F
:1004500066E18C2F09DF082F43E46BE08C2F04DF6B
:10046000D82F4FE461E38C2FFFDE982F8091080195
:10047000843619F01092090103C081E080930901CC
:1004800080910901882369F1B928CB2851F58A2D7B
:100490008D218E218F2180238D2389238F3F09F584
:1004A0001CC044E065E08C2F8FDE44E16AE48C2FB1
:1004B0008BDE4FE560EA8C2F87DE44E065E08C2F11
:1004C00099DED82F44E16AE48C2F94DED82B4FE5D7
:1004D00060EA8C2F8FDE8D2B21F460E0812FE8DE27
:1004E00005C083E002C012DE81E03DDEE89AE09ABA
:1004F00010920B0113CF1F920F920FB60F9211247F
:100500008F9381E080930B018F910F900FBE0F901E
:080510001F901895F894FFCF2D
:06051800A2A4A6A0A800A9
:00000001FF
