:1000000019C0A6C232C031C030C02FC02EC02DC012
:100010002CC02BC02AC029C028C027C026C025C09C
:1000200024C023C022C021C020C01FC01EC01DC0CC
:100030001CC01BC011241FBECFEFD2E0DEBFCDBF5E
:1000400011E0A0E0B1E0E2E7F5E002C005900D921A
:10005000AC32B107D9F721E0ACE2B1E001C01D92AA
:10006000A135B207E1F730D282C2CACF90E027E0D3
:100070009817B1F025B93FE74AE156E031504040CA
:100080005040E1F700C0000015B83FE74AE156E0F4
:10009000315040405040E1F700C000009F5FE8CF82
:1000A0000895282FFC018E2F821B861710F41192C1
:1000B000FACF0895823079F028F4882341F0813016
:1000C00041F00895833049F0843049F00895862F37
:1000D000CDCF87E005C084E003C085E001C082E0A9
:1000E00085B92FEF8DE399E4215080409040E1F7EE
:1000F00000C0000015B80895419A80EA8A95F1F78A
:1001000041988DE08A95F1F70000419A0895CF92C9
:10011000DF92EF92FF920F931F93CF93DF9300D064
:1001200000D0CDB7DEB78091000190910101A09180
:100130000201B091030189839A83AB83BC83309B16
:1001400002C080E04AC0CE0101967C0110E006E0CA
:100150008EE0D82EF701C1907F01CEDF84E090E0E1
:1001600020E842983C2D322311F0439A01C0439875
:10017000F2E4FA95F1F700C0429A3AE13A95F1F7C4
:1001800000C02695019769F74298439807B924E083
:1001900030E098E080E0429842E44A95F1F700C0F0
:1001A000429A3399892BEAE1EA95F1F700C09695D6
:1001B0002150310981F74298D7B843981F5F8C309E
:1001C00039F44298439841988EE087B9812F05C051
:1001D0004198143009F0BECFB4CF0F900F900F901C
:1001E0000F90DF91CF911F910F91FF90EF90DF90D3
:1001F000CF9008951F93CF93DF9300D000D0CDB759
:10020000DEB7182F8091000190910101A0910201A9
:10021000B091030189839A83AB83BC838EE087B955
:100220006BDF812F90E0FC013197DE01A80FB91F31
:100230002C9144E050E030E84298622F632311F0A3
:10024000439A01C0439862E46A95F1F700C0429A6C
:10025000AAE1AA95F1F700C036954150510961F71E
:100260004298439836E037B9207F2093300120919F
:10027000300144E050E038E0429862E46A95F1F7DA
:1002800000C0429A3399232BAAE1AA95F1F700C046
:1002900036954150510981F742982093300121E071
:1002A00030E068E070E050E840E04298A2E4AA95AF
:1002B000F1F700C0429A3399452BAAE1AA95F1F7CC
:1002C00000C056956150710981F74298D901A05D2F
:1002D000BE4F4C932F5F3F4F2032310511F74198AD
:1002E0002EE027B9439830913001E85FFE4F20811E
:1002F00032131CC020913C01FC01E85FFE4F83815A
:10030000281314C090913D01878198130FC08091EC
:100310004701873259F480914601823639F4909131
:10032000450181E09C3019F480E001C081E00F902C
:100330000F900F900F90DF91CF911F9108951F9311
:10034000CF93DF9300D000D0CDB7DEB7182F8091C8
:10035000040190910501A0910601B09107018983E4
:100360009A83AB83BC838091310180932C0180916F
:10037000320180932D018091330180932E01809171
:10038000340180932F0110922F018EE087B9B4DEE3
:10039000FE01E10FF11D308188E090E020E84298F5
:1003A000422F432311F0439A01C04398E7ECF0E059
:1003B0003197F1F700C00000429AFAE1FA95F1F79F
:1003C00000C02695019759F74298439880E090E045
:1003D000FC01E45DFE4F508128E030E040E84298A7
:1003E000642F652311F0439A01C04398E7ECF0E0D5
:1003F0003197F1F700C00000429AFAE1FA95F1F75F
:1004000000C046952150310951F7EFEDFEE23197DA
:10041000F1F700C00000429843980196843091059E
:10042000B9F6419860E280E391E03BDE812FE2DEA5
:10043000813091F080E090E0FC01E45DFE4F30817E
:100440000196FC01E05DFE4F2081321305C084302F
:10045000910591F780E001C081E00F900F900F901F
:100460000F90DF91CF911F9108951F93CF93DF934A
:10047000C82F192FD62F8EE087B93EDE3C2FEC2FE8
:10048000F12F8E2F831B8D17D0F4419188E090E0DF
:1004900020E84298542F522311F0439A01C0439808
:1004A00052E45A95F1F700C0429A5AE15A95F1F791
:1004B00000C02695019769F742984398E2CF41988A
:1004C000DF91CF911F91089587E084B98EE087B9BD
:1004D0001AB888EF85B980E388B98BEF8BB9809122
:1004E0006900826080936900E89A41984298439835
:1004F0007894809150018823E1F3E8986AE081E2E2
:1005000091E0B3DF04DEC82F811102C081E004C096
:1005100071DE813019F482E0A9DD09C08C2F0FDF74
:10052000813011F483E0F8CF60E08C2FC3DD6AE006
:1005300087E191E09ADF60E280E391E0B2DD64E080
:100540008CE291E0AEDDE89AE09A10925001D1CFB2
:100550001F920F920FB60F9211248F9381E0809318
:1005600050018F910F900FBE0F901F901895F89427
:02057000FFCFBB
:1005720027A7E7673FBFFF7F2CACEC6CC343830325
:10058200656766680C62270600016001060011605B
:0C0592000006001160010600116000006E
:00000001FF
